{
  "address": "0x1b6c5BD4C52A1B92d39b60f096AD18b974Ea51C5",
  "abi": [
    {
      "inputs": [
        {
          "internalType": "address",
          "name": "fundingRecipientAddress",
          "type": "address"
        }
      ],
      "stateMutability": "nonpayable",
      "type": "constructor"
    },
    {
      "inputs": [],
      "name": "AlreadyCompleted",
      "type": "error"
    },
    {
      "inputs": [],
      "name": "NotOpenToWithdraw",
      "type": "error"
    },
    {
      "inputs": [
        {
          "internalType": "uint256",
          "name": "deadline",
          "type": "uint256"
        },
        {
          "internalType": "uint256",
          "name": "currentTimestamp",
          "type": "uint256"
        }
      ],
      "name": "TooEarly",
      "type": "error"
    },
    {
      "inputs": [
        {
          "internalType": "address",
          "name": "to",
          "type": "address"
        },
        {
          "internalType": "uint256",
          "name": "amount",
          "type": "uint256"
        }
      ],
      "name": "WithdrawTransferFailed",
      "type": "error"
    },
    {
      "anonymous": false,
      "inputs": [
        {
          "indexed": false,
          "internalType": "address",
          "name": "user_address",
          "type": "address"
        },
        {
          "indexed": false,
          "internalType": "uint256",
          "name": "fund",
          "type": "uint256"
        }
      ],
      "name": "Contribution",
      "type": "event"
    },
    {
      "inputs": [
        {
          "internalType": "address",
          "name": "",
          "type": "address"
        }
      ],
      "name": "balances",
      "outputs": [
        {
          "internalType": "uint256",
          "name": "",
          "type": "uint256"
        }
      ],
      "stateMutability": "view",
      "type": "function"
    },
    {
      "inputs": [],
      "name": "contribute",
      "outputs": [],
      "stateMutability": "payable",
      "type": "function"
    },
    {
      "inputs": [],
      "name": "deadline",
      "outputs": [
        {
          "internalType": "uint256",
          "name": "",
          "type": "uint256"
        }
      ],
      "stateMutability": "view",
      "type": "function"
    },
    {
      "inputs": [],
      "name": "execute",
      "outputs": [],
      "stateMutability": "nonpayable",
      "type": "function"
    },
    {
      "inputs": [],
      "name": "fundingRecipient",
      "outputs": [
        {
          "internalType": "contract FundingRecipient",
          "name": "",
          "type": "address"
        }
      ],
      "stateMutability": "view",
      "type": "function"
    },
    {
      "inputs": [],
      "name": "openToWithdraw",
      "outputs": [
        {
          "internalType": "bool",
          "name": "",
          "type": "bool"
        }
      ],
      "stateMutability": "view",
      "type": "function"
    },
    {
      "inputs": [],
      "name": "thresheld",
      "outputs": [
        {
          "internalType": "uint256",
          "name": "",
          "type": "uint256"
        }
      ],
      "stateMutability": "view",
      "type": "function"
    },
    {
      "inputs": [],
      "name": "timeLeft",
      "outputs": [
        {
          "internalType": "uint256",
          "name": "",
          "type": "uint256"
        }
      ],
      "stateMutability": "view",
      "type": "function"
    },
    {
      "inputs": [],
      "name": "withdraw",
      "outputs": [],
      "stateMutability": "nonpayable",
      "type": "function"
    },
    {
      "stateMutability": "payable",
      "type": "receive"
    }
  ],
  "transactionHash": "0xbc6af013089d49a8145d0dab4907c0a077fb5bff16b230dc2dc22f05cb746b4d",
  "args": [
    "0x24e8f10E6Aeb3Eb89da6D7FeDE73E9195Bc379c0"
  ],
  "numDeployments": 1,
  "solcInputHash": "39ea5a82a5993b98683dce6f90ebef46",
  "bytecode": "0x608060405261000f42601e610062565b60025534801561001e57600080fd5b5060405161070838038061070883398101604081905261003d91610089565b600380546001600160a01b0319166001600160a01b03929092169190911790556100b9565b8082018082111561008357634e487b7160e01b600052601160045260246000fd5b92915050565b60006020828403121561009b57600080fd5b81516001600160a01b03811681146100b257600080fd5b9392505050565b610640806100c86000396000f3fe60806040526004361061008a5760003560e01c806329dcb0cf1161005957806329dcb0cf146101475780633ccfd60b1461015d5780636146195414610172578063763418a714610187578063d7bb99ba146101b157600080fd5b8063098b25ee1461009e5780631300a6d1146100cd5780631bb534ba146100e257806327e235e31461011a57600080fd5b36610099576100976101b5565b005b600080fd5b3480156100aa57600080fd5b506100ba670de0b6b3a764000081565b6040519081526020015b60405180910390f35b3480156100d957600080fd5b506100ba6102a8565b3480156100ee57600080fd5b50600354610102906001600160a01b031681565b6040516001600160a01b0390911681526020016100c4565b34801561012657600080fd5b506100ba610135366004610576565b60006020819052908152604090205481565b34801561015357600080fd5b506100ba60025481565b34801561016957600080fd5b506100976102cd565b34801561017e57600080fd5b50610097610429565b34801561019357600080fd5b506001546101a19060ff1681565b60405190151581526020016100c4565b6100975b600360009054906101000a90046001600160a01b03166001600160a01b0316639d9a7fe96040518163ffffffff1660e01b8152600401602060405180830381865afa158015610208573d6000803e3d6000fd5b505050506040513d601f19601f8201168201806040525081019061022c91906105a6565b1561024a5760405163195332a560e01b815260040160405180910390fd5b33600090815260208190526040812080543492906102699084906105de565b9091555050604080513381523460208201527f4d154d4aae216bed6d0926db77c00df2b57c6b5ba4eee05775de20facede3a7b910160405180910390a1565b60006002544210156102c757426002546102c291906105f7565b905090565b50600090565b600360009054906101000a90046001600160a01b03166001600160a01b0316639d9a7fe96040518163ffffffff1660e01b8152600401602060405180830381865afa158015610320573d6000803e3d6000fd5b505050506040513d601f19601f8201168201806040525081019061034491906105a6565b156103625760405163195332a560e01b815260040160405180910390fd5b60015460ff16151560000361038a5760405163a6b765a760e01b815260040160405180910390fd5b3360008181526020819052604080822054905190929083908381818185875af1925050503d80600081146103da576040519150601f19603f3d011682016040523d82523d6000602084013e6103df565b606091505b50909150508015156000036104155760405163dd2c9e2f60e01b8152336004820152602481018390526044015b60405180910390fd5b505033600090815260208190526040812055565b600360009054906101000a90046001600160a01b03166001600160a01b0316639d9a7fe96040518163ffffffff1660e01b8152600401602060405180830381865afa15801561047c573d6000803e3d6000fd5b505050506040513d601f19601f820116820180604052508101906104a091906105a6565b156104be5760405163195332a560e01b815260040160405180910390fd5b6002544210156104ee5760025460405163e58369d160e01b8152600481019190915242602482015260440161040c565b670de0b6b3a7640000471061056857600360009054906101000a90046001600160a01b03166001600160a01b031663522e1177476040518263ffffffff1660e01b81526004016000604051808303818588803b15801561054d57600080fd5b505af1158015610561573d6000803e3d6000fd5b5050505050565b6001805460ff191681179055565b60006020828403121561058857600080fd5b81356001600160a01b038116811461059f57600080fd5b9392505050565b6000602082840312156105b857600080fd5b8151801515811461059f57600080fd5b634e487b7160e01b600052601160045260246000fd5b808201808211156105f1576105f16105c8565b92915050565b818103818111156105f1576105f16105c856fea2646970667358221220f738549f4ab4debd66d2f58fdefd29a3f0d95bab84fffd9b6737235588bb7b2864736f6c63430008140033",
  "devdoc": {
    "kind": "dev",
    "methods": {},
    "version": 1
  },
  "userdoc": {
    "errors": {
      "NotOpenToWithdraw()": [
        {
          "notice": "Errors //////"
        }
      ]
    },
    "events": {
      "Contribution(address,uint256)": {
        "notice": "Events /////"
      }
    },
    "kind": "user",
    "methods": {
      "balances(address)": {
        "notice": "State Variables //"
      },
      "constructor": {
        "notice": "Constructor ///"
      },
      "contribute()": {
        "notice": "Functions /////"
      },
      "timeLeft()": {
        "notice": "View Functions /////"
      }
    },
    "version": 1
  },
  "storageLayout": {
    "storage": [
      {
        "astId": 25,
        "contract": "contracts/CrowdFund.sol:CrowdFund",
        "label": "balances",
        "offset": 0,
        "slot": "0",
        "type": "t_mapping(t_address,t_uint256)"
      },
      {
        "astId": 27,
        "contract": "contracts/CrowdFund.sol:CrowdFund",
        "label": "openToWithdraw",
        "offset": 0,
        "slot": "1",
        "type": "t_bool"
      },
      {
        "astId": 36,
        "contract": "contracts/CrowdFund.sol:CrowdFund",
        "label": "deadline",
        "offset": 0,
        "slot": "2",
        "type": "t_uint256"
      },
      {
        "astId": 39,
        "contract": "contracts/CrowdFund.sol:CrowdFund",
        "label": "fundingRecipient",
        "offset": 0,
        "slot": "3",
        "type": "t_contract(FundingRecipient)232"
      }
    ],
    "types": {
      "t_address": {
        "encoding": "inplace",
        "label": "address",
        "numberOfBytes": "20"
      },
      "t_bool": {
        "encoding": "inplace",
        "label": "bool",
        "numberOfBytes": "1"
      },
      "t_contract(FundingRecipient)232": {
        "encoding": "inplace",
        "label": "contract FundingRecipient",
        "numberOfBytes": "20"
      },
      "t_mapping(t_address,t_uint256)": {
        "encoding": "mapping",
        "key": "t_address",
        "label": "mapping(address => uint256)",
        "numberOfBytes": "32",
        "value": "t_uint256"
      },
      "t_uint256": {
        "encoding": "inplace",
        "label": "uint256",
        "numberOfBytes": "32"
      }
    }
  }
}